:020000040000FA
:1000000000400010ED010000F5010000F7010000C4
:1000100000000000000000000000000000000000E0
:10002000000000000000000000000000F9010000D6
:100030000000000000000000FB010000FD010000C6
:10004000FF01000003020000070200000B02000095
:100050000F02000013020000170200001B02000044
:100060001F02000023020000270200002B020000F4
:100070002F02000033020000370200003B020000A4
:100080003F02000043020000470200004B02000054
:100090004F02000053020000570200005B02000004
:1000A0005F02000063020000670200006B020000B4
:1000B0006F02000073020000770200007B02000064
:020000040000FA
:1001400000F002F800F03EF80CA030C8083824187F
:100150002D18A246671EAB4654465D46AC4201D1FF
:1001600000F030F87E460F3E0FCCB64601263342F3
:1001700000D0FB1AA246AB4633431847B81800001C
:10018000D8180000103A02D378C878C1FAD85207BC
:1001900001D330C830C101D504680C60704700003D
:1001A0000023002400250026103A01D378C1FBD893
:1001B000520700D330C100D50B6070471FB51FBD7B
:1001C00010B510BD03488546FFF7F8FF01F0F8FAB7
:1001D00000F01EFA0040001003B4FFF7F1FF03BC6B
:1001E00000F0EAF980F308880847000024488047B7
:1001F00024480047FEE7FEE7FEE7FEE7FEE7224869
:10020000004722480047224800472248004722482A
:10021000004722480047224800472248004722481A
:10022000004722480047224800472248004722480A
:1002300000472248004722480047224800472248FA
:1002400000472248004722480047224800472248EA
:1002500000472248004722480047224800472248DA
:1002600000472248004722480047224800472248CA
:100270000047224800472248004722480047FEE73F
:100280004D0A0000410100007F0200007F020000D3
:100290007F020000750A00008D0A0000A50A000018
:1002A0007F0200007F0200007F0200007F0200004A
:1002B0007F0200007F0200007F0200007F0200003A
:1002C0007F0200007F0200007F0200007F0200002A
:1002D0007F0200007F0200007F0200007F0200001A
:1002E0007F0200007F0200007F0200007F0200000A
:1002F0007F0200007F0200007F0200007F020000FA
:10030000B1090000C9090000FEB5054610460C46BB
:10031000184373D0AE468C460020AD1A01469C416E
:1003200067D36646002701243D46B61A9D4102D395
:1003300013463A462124654676462F04360C3E4342
:100340002D0CB61A9D4104D3150C1B042B4312042B
:100350001034654676462F06360A3E432D0AB61AF5
:100360009D4104D3150E1B022B431202083465462F
:1003700076462F0736093E432D09B61A9D4104D310
:10038000150F1B012B431201241D65467646AF074E
:10039000B6083E43AD08B61A9D4104D3950F9B00A5
:1003A0002B439200A41C65467646EF0776083E4331
:1003B0006D08B61A9D411AD392185B41641C16E071
:1003C0000018764665464941B71A9D410191009053
:1003D00009D36046B11A98418E4684460098019927
:1003E0000025401C6941DD0752082A435B08641E52
:1003F000E6D57246634603B0F0BDFFE70020014634
:10040000C046C0462A462346F5E710B5002000F056
:10041000D9F8FFF7D5FE012000F0CEF810BD01E0BD
:1004200004C0091F0429FBD28B0701D50280801C60
:10043000C90700D00270704700290BD0C30702D053
:100440000270401C491E022904D3830702D5028092
:10045000801C891EE3E70022EEE70022DFE700228E
:1004600003098B422CD3030A8B4211D300239C46F1
:100470004EE003460B433CD4002243088B4231D369
:1004800003098B421CD3030A8B4201D394463FE0FD
:10049000C3098B4201D3CB01C01A524183098B425D
:1004A00001D38B01C01A524143098B4201D34B0146
:1004B000C01A524103098B4201D30B01C01A5241A9
:1004C000C3088B4201D3CB00C01A524183088B4230
:1004D00001D38B00C01A524143088B4201D34B0019
:1004E000C01A5241411A00D201465241104670478B
:1004F0005DE0CA0F00D04942031000D34042534090
:1005000000229C4603098B422DD3030A8B4212D34F
:10051000FC22890112BA030A8B420CD38901921181
:100520008B4208D3890192118B4204D389013AD0BE
:10053000921100E08909C3098B4201D3CB01C01A93
:10054000524183098B4201D38B01C01A52414309A6
:100550008B4201D34B01C01A524103098B4201D394
:100560000B01C01A5241C3088B4201D3CB00C01A01
:10057000524183088B4201D38B00C01A5241D9D219
:1005800043088B4201D34B00C01A5241411A00D29A
:100590000146634652415B10104601D34042002B96
:1005A00000D54942704763465B1000D3404201B515
:1005B0000020C046C04602BD01491820ABBEFEE780
:1005C0002600020010B500F00BF800F002F810BD94
:1005D000704710B5002801D0FFF7EEFF10BD0000F6
:1005E00010B5002102A000F01BF8012010BD000092
:1005F000534947414252543A2041626E6F726D61D5
:100600006C207465726D696E6174696F6E000000B4
:1006100010B50446C046C0462046FFF7DDFD10BDBC
:1006200070B505460C460A2000E06D1C00F012F87B
:10063000002D06D028780028F7D102E0641C00F0D5
:1006400009F8002C02D020780028F7D10A2000F009
:1006500001F870BD08B5694608700320ABBE08BD3F
:100660000021104AC94311600F4A11600F4A00214E
:1006700011610F494A6801235B061A434A60EFF390
:100680001482920709D5EFF3098282F30888EFF309
:10069000148202239A4382F31488886003C8FFF708
:1006A000A1FD000080E100E080E200E000E000E069
:1006B00000ED00E00449020A51180A680123834052
:1006C0009A430A6070470000808004400449020A8F
:1006D00051180A68012383401A430A6070470000DA
:1006E0008080044010B5074800F020F8054A000259
:1006F0000021103A52690B46D2B2FF320132FFF7A5
:1007000003FE10BDD080044010B5074800F00EF87D
:10071000054A00020021203A526A0B46D2B2FF324B
:100720000132FFF7F1FD10BDE080044010B5007A02
:100730008007800F04D0012805D000F07FF810BD9D
:1007400000F034F810BD00F055F810BD10B5154993
:10075000030000F0A2FC09060E1114181C1A1F2237
:10076000250000F047F810498969C9B2FFF777FE04
:1007700010BD00F03FF810BD00F018F810BD00F0FB
:1007800015F8400810BD086810BD486810BD00F09D
:1007900055F810BDFFF7A6FF10BDFFF7B5FF10BD60
:1007A000002010BD040000104080044010B50C492A
:1007B000886A8007800F0BD001280BD00948896A0E
:1007C00089030CD408490968890705D5102104E07C
:1007D0000648F4E70648F2E70221FFF740FE10BDA5
:1007E0000080044080C3C9010000015080A81201AC
:1007F00000366E0110B50F4900208A689207920FEB
:10080000012A0DD0096900290DD00B4A01290DD00C
:1008100002290DD0032902D1FFF7C8FF400810BDFF
:1008200000F00CF810BDFFF7C1FF10BD106810BD3F
:10083000506810BD408004400400001010B500F066
:1008400009F803498968C906C90E491C484310BD07
:100850000080044010B50B490020096800290AD027
:10086000094A01290AD002290AD0032902D1FFF737
:100870009DFF400810BDFFF799FF10BD106810BD27
:10088000506810BD408004400400001008B50021ED
:10089000009118494B6B182293434B638B6B934326
:1008A0008B6315490A68FF2381339A430A60134A10
:1008B000116A8B0812499B00884201D9022100E08D
:1008C00000210B43116A0B4313620C4940314A6B00
:1008D000520852004A630B498A6B20239A438A6369
:1008E000094900BF009A521C00928A42F9D3074975
:1008F000086008BD00400440C0C1004000800440C2
:10090000C0E1E40000820440DC05000004000010A7
:1009100010B508498B6A012252041340834208D063
:100920008B6A934303438B6202480121303000F00D
:100930002FF810BD0080044070B5144DC4B2296971
:10094000000A8907890F81420DD0002C0BD129693B
:10095000800789088900800F014329610B48012124
:10096000143000F015F8A8688007800FA0420BD063
:10097000A868A10780088000890F0843A860034881
:1009800001210C3000F004F870BD000040800440EC
:1009900010B5002809D002688A43026002680A4341
:1009A000026002680A42FCD010BDFFF72EFD000075
:1009B0000248044AC168126801481047AC000010A0
:1009C000000007400C0000100248044A0169126848
:1009D00001481047AC000010004007400C00001018
:1009E000010C82B2012010B59040202A01D3FFF7FC
:1009F0000CFD0C4A002902D0012904D006E09468BD
:100A00008443946002E0D3688343D360002905D017
:100A1000012902D1D1680143D16010BD9168014321
:100A2000916010BD8080044070B500280BD08B0809
:100A30008907C90E9B00C458FF258D40AC438A40EE
:100A40002243C25070BDFFF7E0FC000010B505491D
:100A50000348886005490448086000F009F810BDA3
:100A60000000000000ED00E0001BB70000000010D7
:100A7000704700000248044A0168126801481047A4
:100A8000AC000010004006400C0000100248044A70
:100A90004168126801481047AC0000100080064011
:100AA0000C0000100248044A81681268014810478F
:100AB000AC00001000C006400C00001010B500286B
:100AC00014D081680907FCD5016849084900016014
:100AD00000F038F806494000085A0649020A511841
:100AE0000A68012383409A430A6010BDFFF78DFC1A
:100AF000141A0000808004404022002906D00168BA
:100B00000123194301604168914301E041681143A9
:100B10004160704710B5002811D0002141604B2280
:100B20008160D2010260C160017241720122827251
:100B3000817101714171C172C171017310BDFFF703
:100B400064FC000010B50146054A00208300D3581C
:100B50008B4204D0401C0528F8DBFFF756FC10BD83
:100B6000001A0000F7B50C46050041D0002C3FD01C
:100B7000029800283CD02846FFF7E4FF2C4A4100A9
:100B8000515A2C4A0B0A9A181368012637468F408F
:100B90003B431360264980000C310858FFF720FFC3
:100BA000207A8007810E607AC007400E0143E07A08
:100BB0008207D20FD2021143A27AC0079207120F06
:100BC0001143A279400CD207120C11430143207B40
:100BD000C007C00C0143491C29602168002909D0C5
:100BE0002846029A00F02AF8002803D01248FEBDD9
:100BF000FFF70BFCE079FF2101310028686801D084
:100C0000084300E08843686061792846FFF774FF75
:100C10002079002802D02868304305E06868400643
:100C200003D528684008400028600020FEBD000071
:100C3000141A0000808004404F160000F7B584B0FD
:100C400004980D46002844D0002D42D00698002874
:100C50003FD00020C043009002900F2104980191E2
:100C600000680026000506D529460698FFF7F7FB21
:100C7000401E049934E00C46611C039169430698B8
:100C8000FFF7EDFB471E1848874210D80399781CE0
:100C900041430698FFF7E3FB854201D2461B00E083
:100CA0002E1A0098864202D2029700960194641E82
:100CB000082CE1D20C490298884202D90B4807B0AF
:100CC000F0BD64212846FFF7CAFB41004018B0423E
:100CD00001D8FFF79AFB0499019888620499029859
:100CE00008620020EBE70000FFFF00004F16000045
:100CF00010B5002903D08A69002A02D004E0FFF76A
:100D000084FBFF22023202610020086102202031B0
:100D1000487310BD10B50C0009D0042101610021F9
:100D2000FFF7EAFE002060602034207310BDFFF75B
:100D30006CFB0000F8B51E4617460C46002825D06F
:100D4000002C23D0FFF7FEFE054630212046FFF79A
:100D500084FB0221204620304173002101730C499D
:100D60006762A800A6620C500B490A4808600B484D
:100D700040570146803107D0002805DBC106C90E67
:100D800001208840064908600020F8BDFFF73DFBC0
:100D9000AC000010C50D00000C000010F819000098
:100DA00000E100E010B5002809D0418C028C91428E
:100DB000018C01D9C2698918408C081A10BDFFF74F
:100DC00024FB0000FEB50C46050005D0002C03D026
:100DD0002069002805D101E0FFF717FBA069002872
:100DE00000D0012000906068002800D00120019010
:100DF000AE68F0050CD5A868FF2101310843A86052
:100E0000676A002F04D03E4A21462846A36AB847A5
:100E100000992046203031400090002950D02069B0
:100E200000281FD06869E16808702069401E2061B1
:100E3000E068401CE06020692069002840D1A0697A
:100E4000002802D1FF20023028610098022141735E
:100E5000676A002F34D02A4A2146921E2846A36A88
:100E6000B8472DE0A06900282AD0204600F04AF8B3
:100E7000002808D0676A002F05D0214A2146521C5D
:100E80002846A36AB847204600F03CF8002809D05D
:100E9000608CE169401C884201D1002001E0608C37
:100EA000401C60846869228CA1698854208CE169A7
:100EB000401C884201D1002001E0208C401C20848D
:100EC000019800281BD0700719D520680078E861C8
:100ED0006068401E60602068401C206060680028D8
:100EE0000DD104202861009900200873666A002E45
:100EF00005D0034A2146D21E2846A36AB047FEBD4C
:100F00004916000070B500240546002808D0FFF7F8
:100F100049FFE969491E884200D10124204670BD7D
:100F2000FFF773FAFFB581B0019817460C46002809
:100F300021D0002C1FD0002F1DD07D68002D1AD08D
:100F40003968002917D0204620300090407B0328C4
:100F500013D0A069002600283ED001990120086125
:100F60002046FFF71FFF01001FD08D4200D2294607
:100F70006D1A002015E0FFF748FA1F4805B0F0BDD4
:100F8000638CA269D25C3B689A55628CE369521CFF
:100F9000761C9A4201D1002201E0628C521C6284CC
:100FA000401C8842ECD3002D07D038688019E060DF
:100FB0002561656100990320487301990120C8608B
:100FC000002D13D1656A002D10D00B4A2146921CCA
:100FD000A36A0198A84709E0E1602561656100986E
:100FE00003214173FF2001990230C8600498002852
:100FF00000D006600020C1E74516000070B500284B
:101000001DD000291BD0002A19D05368002B16D000
:101010001468002C13D00B4620331D7B012D10D0FB
:101020000C6054684C6052688A6001211973042175
:10103000C1604168402291434160002070BDFFF7CC
:10104000E4F9014870BD00004416000010B5002806
:101050000CD000290AD0002A08D0CB618A61002276
:101060000A844A84FF210231C16010BDFFF7CDF927
:1010700010B5002806D0002904D02D22525C022A87
:1010800002D004E0FFF7C1F9FF2202320261002022
:101090008861C8610884488410BD30B47446641EF9
:1010A0002578641CAB4200D21D46635D5B00E318EB
:1010B00030BC1847002104E000BF00BF00BF00BFE4
:1010C000491C8142F8D9704710B50248006800F009
:1010D00003F810BD6C18000070B5124C0546A06BEB
:1010E00040084000A063A16B02208143A1630E4928
:1010F000A8B2884701204004FFF70AFCA16B20201A
:101100008143A1630948FFF7C1FB0020FFF714FCEE
:10111000074881690122090A0902114381610548D2
:10112000056070BD00820440F526000F001BB7006B
:10113000408004400000001010B5362801D3FFF7AE
:1011400064F9044B024A185C8000115010BD000085
:1011500000400440DC18000010B5002800D0FEE775
:101160000620FFF7A7FA1420FFF7A4FA1C20FFF7C8
:10117000A1FA1220FFF79EFA10BD000003B56846E1
:101180004179064A890089188079096801228240DC
:10119000114201D001200CBD00200CBD002000A098
:1011A00013B5684682794179007900F055F81CBD85
:1011B00007B56846134682794179007900F0C5F891
:1011C0000EBD13B5684682794179007900F0D4F8F4
:1011D0001CBD13B5684682794179007900F0D6F8D4
:1011E0001CBD13B5684682794179007900F0DEF8BC
:1011F0001CBD13B5684682794179007900F0E0F8AA
:101200001CBD13B5684682794179007900F0E8F891
:101210001CBD07B56846134682794179007900F014
:10122000EFF80EBD10B5002801D0FFF7EEF8014829
:10123000006810BD701800003CB5064C30CC00941E
:1012400001956C4621716271A3710099019A06C0E3
:101250003CBD000084190000052040074901081822
:10126000805C002800D00120704710B5002800D015
:10127000FEE70620FFF72AFA1420FFF727FA1C20C2
:10128000FFF724FA1220FFF721FA0620FFF7A8FB48
:101290001420FFF7A5FB1C20FFF7A2FB1220FFF78D
:1012A0009FFB10BD70B514460D46FFF7BBFFA900AC
:1012B00008184521C9014018046070BD70B5154675
:1012C0000C46FFF7AFFFA100401801214903401869
:1012D000056070BD70B515460C46FFF7A3FFA10071
:1012E0004018092189024018056070BD70B5154687
:1012F0000C46FFF797FFA10040184721C90140188D
:10130000056070BD10B50C46FFF78CFFA1000818F2
:10131000212109024018006810BD70B514460D4621
:10132000FFF780FFA9000818112149024018046046
:1013300070BD70B514460D46FFF774FFA90008187C
:10134000232109024018046070BD70B58D0001268C
:10135000760301249440002B06D0FFF763FF401969
:1013600080190168214305E0FFF75CFF40198019EF
:101370000168A143016070BD70B515460C46FFF7CA
:1013800051FF610140180121415570BD70B51546EE
:101390000C46FFF747FFA100401801214903401800
:1013A00001680122AA409143016070BD70B51546E5
:1013B0000C46FFF737FF610140180021415570BD11
:1013C00070B515460C46FFF72DFFA100401801210E
:1013D0004903401801680122AA401143016070BD11
:1013E00070B515460C46FFF71DFFA10040182321DC
:1013F0000902401801680122AA401143016070BD32
:1014000070B51E4615460C46FFF70CFF61014018EB
:10141000465570BD70B5054600F092F80446284662
:1014200000F080F85821095C890705D5014622683B
:1014300028311046FFF75CFC70BD70B5054600F022
:101440007FF80446284600F06DF85821095C8907AA
:1014500005D50146226828311046FFF75BFC70BDB8
:1014600070B511481D46403516461C4682420AD1C9
:10147000287E4008400028762369002B03D062694B
:10148000616A206A98470848401C86420BD1287E32
:10149000FD21084028762069002804D0A369E2696C
:1014A000616A206A984770BD4616000010B500F0CA
:1014B00047F804460068FFF701FB5C216068FEF70F
:1014C000CAFF10BD13B568460079FFF7A3FF1CBD26
:1014D00013B568460079FFF7B0FF1CBD07B5684635
:1014E0001146007900F086F80EBD07B56846114632
:1014F000007900F0A6F80EBD07B5684611460079E0
:1015000000F034F90EBD00000CB5054A0CCA00927B
:1015100001936A4611710099019A06C00CBD000042
:101520008C19000010B5052801D3FEF76EFF1421B9
:10153000484302494018406810BD00007818000078
:1015400010B5052801D3FEF760FF14214843014977
:10155000401810BD7818000010B5052801D3FEF71B
:1015600054FF0249C000401810BD0000941900004B
:101570007FB50646FFF7E4FF04463046FFF7D2FF8B
:1015800005463046FFF7E8FF014600200090019035
:1015900002900390607C002826D00888134AC1B2CC
:1015A000000A801801605C216068FEF754FF6846FD
:1015B000FFF7B0FAA06800900120694608714871F1
:1015C000FFF7C4F8024669462068FFF7CBFA3046B9
:1015D00000F05AF829462B46054A28312068FFF7C3
:1015E000A9FB012004B070BDFEF70FFF008004408E
:1015F0006114000070B50C460646FFF7A1FF0546D2
:101600003046FFF78FFF014640310A46097E8B07BF
:1016100001D5002070BD022319431176E268A1684C
:10162000C2618161216881606168C16002460146D2
:101630002C680023083228312046FFF773FC012074
:1016400070BD70B50C460646FFF77AFF054630467A
:10165000FFF768FF014602464031087EC30701D00C
:10166000002070BD012318430876E168A06851612D
:101670001061206810606068506011462831286849
:10168000FFF7BCFC012070BDF8B50546FFF758FF19
:1016900004462846FFF760FF05463020204E0090A4
:1016A0003068802738433060227B362A07D2A978F9
:1016B0001C48FFF7B9F9207B0099FFF73DFD627BDD
:1016C000362A07D2E9781748FFF7AEF9607B009910
:1016D000FFF732FDA27B362A07D229791148FFF79E
:1016E000A3F9A07B0099FFF727FDE27B362A07D2FA
:1016F00069790C48FFF798F9E07B0099FFF71CFD2A
:10170000227C362A07D2A9790648FFF78DF9207C7A
:101710000099FFF711FD3068B8433060F8BD000054
:101720008080044000C0004070B50546FFF708FF08
:1017300004462846FFF7F6FE014622682831104687
:10174000FFF796FC70BDF8B515460E460746FFF745
:10175000F7FE04463846FFF7E5FE246801462B46AF
:10176000324628312046FFF771FCF8BD70B50C46B3
:10177000FFF7E6FE05460120FEF7E8FF0246214698
:101780002868FFF75BFA002801D0002070BD012017
:1017900070BD000070B50022074C084D2023636027
:1017A0002846FFF787FC521C052AF8DB0120C003FE
:1017B000FEF756FF70BD0000002300A040420F005E
:1017C00000F03EF8FFF7E6FFFCE70000FEB5174F1C
:1017D000174E0024174801228568A3B200216846ED
:1017E000A847E000C5190098019903C5B269083DF2
:1017F00090472B79E87919466B7900061B0219434B
:10180000AB79B2681B0419432B462D780143284657
:101810005D782D0228439D78DB782D0428431B0634
:1018200018439047641C082CD4DBFEBD1000001048
:10183000601900001419000010B5FFF7C7FF10BDB4
:1018400010B5FFF741FC00F003F8FFF7F5FF10BDFE
:1018500010B504480168002088470348016800204B
:10186000884710BD14190000BC1900003075000035
:10187000000000A0010000000040064050000010E1
:10188000802500001918FFFFFF01000000800640BE
:101890000000000080250000FFFFFFFFFF000000A8
:1018A00000C006400000000080250000FFFFFFFF91
:1018B000FF0000000000074000000000802500003D
:1018C000FFFFFFFFFF000000004007400000000096
:1018D00080250000FFFFFFFFFF000000110B060541
:1018E0000403100F0E0D08070201120A09001E1D45
:1018F0001C1B1A19181716151432332324252629F0
:101900002A2B2E311F203736212227282C2D2F302D
:10191000343500006B12000059110000391200002C
:101920000114000079130000AD130000E113000062
:101930004B1300008D130000C1130000591200006A
:1019400059120000051300001B130000A51200002F
:1019500033130000BD120000D5120000ED1200008C
:1019600013120000C3110000E31100000312000075
:10197000B1110000D3110000F3110000A11100000B
:101980007D1100006019000000000000E419000053
:10199000000000000190000102030400019405060C
:1019A0000708090001980A0B0C0D0E00019C2F304E
:1019B0003C3C310001A032333C3C34007115000046
:1019C000AD14000009150000F515000043160000D5
:1019D000151400003B1400006D17000047170000AD
:1019E00029170000DD140000EB140000C5140000EE
:1019F000D1140000F91400000304051E1F000000AC
:101A0000004006400080064000C00640000007403D
:101A1000004007400E000F0010001E001F000000D5
:101A20000E0000000F000000100000001E0000006B
:101A30001F000000541A00000000001010000000F9
:101A400084010000641A000010000010B0000000C3
:101A5000A0010000001BB700000000000000000013
:041A60000000000082
:0400000500000141B5
:00000001FF
